{
  "_format": "hh-sol-artifact-1",
  "contractName": "SingleNumber",
  "sourceName": "contracts/SingleNumber.sol",
  "abi": [
    {
      "inputs": [],
      "stateMutability": "nonpayable",
      "type": "constructor"
    },
    {
      "anonymous": false,
      "inputs": [
        {
          "indexed": false,
          "internalType": "uint256",
          "name": "number",
          "type": "uint256"
        }
      ],
      "name": "NumberEmitted",
      "type": "event"
    },
    {
      "inputs": [
        {
          "internalType": "uint256",
          "name": "_number",
          "type": "uint256"
        }
      ],
      "name": "emitNumber",
      "outputs": [],
      "stateMutability": "nonpayable",
      "type": "function"
    },
    {
      "inputs": [],
      "name": "minBalance",
      "outputs": [
        {
          "internalType": "uint256",
          "name": "",
          "type": "uint256"
        }
      ],
      "stateMutability": "view",
      "type": "function"
    },
    {
      "inputs": [],
      "name": "owner",
      "outputs": [
        {
          "internalType": "address",
          "name": "",
          "type": "address"
        }
      ],
      "stateMutability": "view",
      "type": "function"
    }
  ],
  "bytecode": "0x6080604052662386f26fc1000060015534801561001b57600080fd5b50336000806101000a81548173ffffffffffffffffffffffffffffffffffffffff021916908373ffffffffffffffffffffffffffffffffffffffff1602179055506104458061006b6000396000f3fe608060405234801561001057600080fd5b50600436106100415760003560e01c80638da5cb5b14610046578063c5bb875814610064578063f15d140b14610082575b600080fd5b61004e61009e565b60405161005b919061022d565b60405180910390f35b61006c6100c2565b6040516100799190610261565b60405180910390f35b61009c600480360381019061009791906102ad565b6100c8565b005b60008054906101000a900473ffffffffffffffffffffffffffffffffffffffff1681565b60015481565b60008054906101000a900473ffffffffffffffffffffffffffffffffffffffff1673ffffffffffffffffffffffffffffffffffffffff163373ffffffffffffffffffffffffffffffffffffffff1614610156576040517f08c379a000000000000000000000000000000000000000000000000000000000815260040161014d9061035d565b60405180910390fd5b6001543373ffffffffffffffffffffffffffffffffffffffff163110156101b2576040517f08c379a00000000000000000000000000000000000000000000000000000000081526004016101a9906103ef565b60405180910390fd5b7f88fde4546a6721246e420284df986b01a42837bb715424189b4e6a5104868517816040516101e19190610261565b60405180910390a150565b600073ffffffffffffffffffffffffffffffffffffffff82169050919050565b6000610217826101ec565b9050919050565b6102278161020c565b82525050565b6000602082019050610242600083018461021e565b92915050565b6000819050919050565b61025b81610248565b82525050565b60006020820190506102766000830184610252565b92915050565b600080fd5b61028a81610248565b811461029557600080fd5b50565b6000813590506102a781610281565b92915050565b6000602082840312156102c3576102c261027c565b5b60006102d184828501610298565b91505092915050565b600082825260208201905092915050565b7f4f6e6c7920746865206f776e65722063616e2063616c6c20746869732066756e60008201527f6374696f6e000000000000000000000000000000000000000000000000000000602082015250565b60006103476025836102da565b9150610352826102eb565b604082019050919050565b600060208201905081810360008301526103768161033a565b9050919050565b7f496e73756666696369656e742062616c616e636520746f20656d69742061206e60008201527f756d626572000000000000000000000000000000000000000000000000000000602082015250565b60006103d96025836102da565b91506103e48261037d565b604082019050919050565b60006020820190508181036000830152610408816103cc565b905091905056fea264697066735822122065e782b6c8c82b78849a45fc0e3c1f23cb9fe7684347086b4d603ea370fff49364736f6c63430008130033",
  "linkReferences": {},
  "deployedLinkReferences": {}
}