{
  "_format": "hh-sol-artifact-1",
  "contractName": "AppendNumber",
  "sourceName": "contracts/AppendNumber.sol",
  "abi": [
    {
      "inputs": [],
      "stateMutability": "nonpayable",
      "type": "constructor"
    },
    {
      "anonymous": false,
      "inputs": [
        {
          "indexed": true,
          "internalType": "uint256",
          "name": "number",
          "type": "uint256"
        }
      ],
      "name": "NumberAppended",
      "type": "event"
    },
    {
      "inputs": [
        {
          "internalType": "uint256[]",
          "name": "_numbers",
          "type": "uint256[]"
        }
      ],
      "name": "appendNumbers",
      "outputs": [],
      "stateMutability": "nonpayable",
      "type": "function"
    },
    {
      "inputs": [
        {
          "internalType": "uint256",
          "name": "_number",
          "type": "uint256"
        }
      ],
      "name": "appendSingleNumber",
      "outputs": [],
      "stateMutability": "nonpayable",
      "type": "function"
    },
    {
      "inputs": [],
      "name": "getNumberArray",
      "outputs": [
        {
          "internalType": "uint256[]",
          "name": "",
          "type": "uint256[]"
        }
      ],
      "stateMutability": "view",
      "type": "function"
    },
    {
      "inputs": [
        {
          "internalType": "uint256",
          "name": "",
          "type": "uint256"
        }
      ],
      "name": "numberArray",
      "outputs": [
        {
          "internalType": "uint256",
          "name": "",
          "type": "uint256"
        }
      ],
      "stateMutability": "view",
      "type": "function"
    }
  ],
  "bytecode": "0x608060405234801561001057600080fd5b50600067ffffffffffffffff81111561002c5761002b6100e0565b5b60405190808252806020026020018201604052801561005a5781602001602082028036833780820191505090505b5060009080519060200190610070929190610076565b5061010f565b8280548282559060005260206000209081019282156100b2579160200282015b828111156100b1578251825591602001919060010190610096565b5b5090506100bf91906100c3565b5090565b5b808211156100dc5760008160009055506001016100c4565b5090565b7f4e487b7100000000000000000000000000000000000000000000000000000000600052604160045260246000fd5b6106588061011e6000396000f3fe608060405234801561001057600080fd5b506004361061004c5760003560e01c80630d22dc9c146100515780636eb07b471461006f578063723a62ac1461008b57806375877061146100bb575b600080fd5b6100596100d7565b6040516100669190610321565b60405180910390f35b61008960048036038101906100849190610383565b61012f565b005b6100a560048036038101906100a09190610383565b610188565b6040516100b291906103bf565b60405180910390f35b6100d560048036038101906100d09190610533565b6101ac565b005b6060600080548060200260200160405190810160405280929190818152602001828054801561012557602002820191906000526020600020905b815481526020019060010190808311610111575b5050505050905090565b6000819080600181540180825580915050600190039060005260206000200160009091909190915055807f3fa804b0f5561113f540cad7381a0cf174ea69b5383af48dd13abf7cc3e5347660405160405180910390a250565b6000818154811061019857600080fd5b906000526020600020016000915090505481565b60005b81518110156102555760008282815181106101cd576101cc61057c565b5b6020026020010151908060018154018082558091505060019003906000526020600020016000909190919091505581818151811061020e5761020d61057c565b5b60200260200101517f3fa804b0f5561113f540cad7381a0cf174ea69b5383af48dd13abf7cc3e5347660405160405180910390a2808061024d906105da565b9150506101af565b5050565b600081519050919050565b600082825260208201905092915050565b6000819050602082019050919050565b6000819050919050565b61029881610285565b82525050565b60006102aa838361028f565b60208301905092915050565b6000602082019050919050565b60006102ce82610259565b6102d88185610264565b93506102e383610275565b8060005b838110156103145781516102fb888261029e565b9750610306836102b6565b9250506001810190506102e7565b5085935050505092915050565b6000602082019050818103600083015261033b81846102c3565b905092915050565b6000604051905090565b600080fd5b600080fd5b61036081610285565b811461036b57600080fd5b50565b60008135905061037d81610357565b92915050565b6000602082840312156103995761039861034d565b5b60006103a78482850161036e565b91505092915050565b6103b981610285565b82525050565b60006020820190506103d460008301846103b0565b92915050565b600080fd5b6000601f19601f8301169050919050565b7f4e487b7100000000000000000000000000000000000000000000000000000000600052604160045260246000fd5b610428826103df565b810181811067ffffffffffffffff82111715610447576104466103f0565b5b80604052505050565b600061045a610343565b9050610466828261041f565b919050565b600067ffffffffffffffff821115610486576104856103f0565b5b602082029050602081019050919050565b600080fd5b60006104af6104aa8461046b565b610450565b905080838252602082019050602084028301858111156104d2576104d1610497565b5b835b818110156104fb57806104e7888261036e565b8452602084019350506020810190506104d4565b5050509392505050565b600082601f83011261051a576105196103da565b5b813561052a84826020860161049c565b91505092915050565b6000602082840312156105495761054861034d565b5b600082013567ffffffffffffffff81111561056757610566610352565b5b61057384828501610505565b91505092915050565b7f4e487b7100000000000000000000000000000000000000000000000000000000600052603260045260246000fd5b7f4e487b7100000000000000000000000000000000000000000000000000000000600052601160045260246000fd5b60006105e582610285565b91507fffffffffffffffffffffffffffffffffffffffffffffffffffffffffffffffff8203610617576106166105ab565b5b60018201905091905056fea26469706673582212201cf0eb5e993817922a4d239db67886c342016bc3363553f5def084daebd9a51e64736f6c63430008130033",
  "linkReferences": {},
  "deployedLinkReferences": {}
}